{
  "_format": "hh-sol-artifact-1",
  "contractName": "PrivaBidAuction",
  "sourceName": "contracts/PrivaBidAuction.sol",
  "abi": [
    {
      "inputs": [],
      "name": "ZamaProtocolUnsupported",
      "type": "error"
    },
    {
      "anonymous": false,
      "inputs": [
        {
          "indexed": true,
          "internalType": "uint256",
          "name": "auctionId",
          "type": "uint256"
        },
        {
          "indexed": false,
          "internalType": "address",
          "name": "owner",
          "type": "address"
        },
        {
          "indexed": false,
          "internalType": "string",
          "name": "description",
          "type": "string"
        },
        {
          "indexed": false,
          "internalType": "uint256",
          "name": "endTime",
          "type": "uint256"
        }
      ],
      "name": "AuctionCreated",
      "type": "event"
    },
    {
      "anonymous": false,
      "inputs": [
        {
          "indexed": true,
          "internalType": "uint256",
          "name": "auctionId",
          "type": "uint256"
        },
        {
          "indexed": false,
          "internalType": "address",
          "name": "winner",
          "type": "address"
        }
      ],
      "name": "AuctionEnded",
      "type": "event"
    },
    {
      "anonymous": false,
      "inputs": [
        {
          "indexed": true,
          "internalType": "uint256",
          "name": "auctionId",
          "type": "uint256"
        },
        {
          "indexed": false,
          "internalType": "address",
          "name": "winner",
          "type": "address"
        },
        {
          "indexed": false,
          "internalType": "uint256",
          "name": "winningAmount",
          "type": "uint256"
        }
      ],
      "name": "AuctionSettled",
      "type": "event"
    },
    {
      "anonymous": false,
      "inputs": [
        {
          "indexed": true,
          "internalType": "uint256",
          "name": "auctionId",
          "type": "uint256"
        },
        {
          "indexed": false,
          "internalType": "address",
          "name": "bidder",
          "type": "address"
        },
        {
          "indexed": false,
          "internalType": "bytes32",
          "name": "commitment",
          "type": "bytes32"
        }
      ],
      "name": "BidCommitmentMade",
      "type": "event"
    },
    {
      "anonymous": false,
      "inputs": [
        {
          "indexed": true,
          "internalType": "uint256",
          "name": "auctionId",
          "type": "uint256"
        },
        {
          "indexed": false,
          "internalType": "address",
          "name": "bidder",
          "type": "address"
        }
      ],
      "name": "BidRevealed",
      "type": "event"
    },
    {
      "anonymous": false,
      "inputs": [
        {
          "indexed": true,
          "internalType": "uint256",
          "name": "auctionId",
          "type": "uint256"
        },
        {
          "indexed": false,
          "internalType": "address",
          "name": "bidder",
          "type": "address"
        },
        {
          "indexed": false,
          "internalType": "uint256",
          "name": "bidIndex",
          "type": "uint256"
        },
        {
          "indexed": false,
          "internalType": "uint256",
          "name": "bondPaid",
          "type": "uint256"
        }
      ],
      "name": "BidSubmitted",
      "type": "event"
    },
    {
      "anonymous": false,
      "inputs": [
        {
          "indexed": true,
          "internalType": "uint256",
          "name": "auctionId",
          "type": "uint256"
        },
        {
          "indexed": false,
          "internalType": "address",
          "name": "bidder",
          "type": "address"
        },
        {
          "indexed": false,
          "internalType": "bool",
          "name": "isWinner",
          "type": "bool"
        }
      ],
      "name": "BidWithdrawalVerified",
      "type": "event"
    },
    {
      "anonymous": false,
      "inputs": [
        {
          "indexed": true,
          "internalType": "uint256",
          "name": "auctionId",
          "type": "uint256"
        },
        {
          "indexed": false,
          "internalType": "address",
          "name": "bidder",
          "type": "address"
        },
        {
          "indexed": false,
          "internalType": "uint256",
          "name": "bondReturned",
          "type": "uint256"
        }
      ],
      "name": "BidWithdrawn",
      "type": "event"
    },
    {
      "anonymous": false,
      "inputs": [
        {
          "indexed": true,
          "internalType": "uint256",
          "name": "auctionId",
          "type": "uint256"
        },
        {
          "indexed": false,
          "internalType": "address",
          "name": "newHighestBidder",
          "type": "address"
        }
      ],
      "name": "HighestBidUpdated",
      "type": "event"
    },
    {
      "anonymous": false,
      "inputs": [
        {
          "indexed": true,
          "internalType": "uint256",
          "name": "auctionId",
          "type": "uint256"
        },
        {
          "indexed": false,
          "internalType": "address",
          "name": "bidder",
          "type": "address"
        }
      ],
      "name": "HighestBidderAssigned",
      "type": "event"
    },
    {
      "anonymous": false,
      "inputs": [
        {
          "indexed": true,
          "internalType": "uint256",
          "name": "auctionId",
          "type": "uint256"
        }
      ],
      "name": "MinimumIncrementSet",
      "type": "event"
    },
    {
      "anonymous": false,
      "inputs": [
        {
          "indexed": true,
          "internalType": "uint256",
          "name": "auctionId",
          "type": "uint256"
        },
        {
          "indexed": false,
          "internalType": "address",
          "name": "user",
          "type": "address"
        }
      ],
      "name": "ReencryptionKeyGenerated",
      "type": "event"
    },
    {
      "anonymous": false,
      "inputs": [
        {
          "indexed": true,
          "internalType": "uint256",
          "name": "auctionId",
          "type": "uint256"
        },
        {
          "indexed": false,
          "internalType": "address",
          "name": "winner",
          "type": "address"
        },
        {
          "indexed": false,
          "internalType": "uint256",
          "name": "amount",
          "type": "uint256"
        }
      ],
      "name": "WinningAmountRevealed",
      "type": "event"
    },
    {
      "inputs": [],
      "name": "BID_BOND",
      "outputs": [
        {
          "internalType": "uint256",
          "name": "",
          "type": "uint256"
        }
      ],
      "stateMutability": "view",
      "type": "function"
    },
    {
      "inputs": [
        {
          "internalType": "uint256",
          "name": "",
          "type": "uint256"
        }
      ],
      "name": "auctions",
      "outputs": [
        {
          "internalType": "address",
          "name": "owner",
          "type": "address"
        },
        {
          "internalType": "string",
          "name": "description",
          "type": "string"
        },
        {
          "internalType": "uint256",
          "name": "endTime",
          "type": "uint256"
        },
        {
          "internalType": "bool",
          "name": "isActive",
          "type": "bool"
        },
        {
          "internalType": "euint32",
          "name": "highestEncryptedBid",
          "type": "bytes32"
        },
        {
          "internalType": "address",
          "name": "pendingWinner",
          "type": "address"
        },
        {
          "internalType": "uint256",
          "name": "bidCount",
          "type": "uint256"
        },
        {
          "internalType": "bool",
          "name": "hasBids",
          "type": "bool"
        },
        {
          "internalType": "bool",
          "name": "settled",
          "type": "bool"
        },
        {
          "internalType": "euint32",
          "name": "minimumIncrement",
          "type": "bytes32"
        },
        {
          "internalType": "bool",
          "name": "winnerRevealed",
          "type": "bool"
        },
        {
          "internalType": "uint256",
          "name": "revealedWinningAmount",
          "type": "uint256"
        }
      ],
      "stateMutability": "view",
      "type": "function"
    },
    {
      "inputs": [
        {
          "internalType": "uint256",
          "name": "",
          "type": "uint256"
        },
        {
          "internalType": "address",
          "name": "",
          "type": "address"
        }
      ],
      "name": "bidderToIndex",
      "outputs": [
        {
          "internalType": "uint256",
          "name": "",
          "type": "uint256"
        }
      ],
      "stateMutability": "view",
      "type": "function"
    },
    {
      "inputs": [
        {
          "internalType": "uint256",
          "name": "",
          "type": "uint256"
        },
        {
          "internalType": "uint256",
          "name": "",
          "type": "uint256"
        }
      ],
      "name": "bids",
      "outputs": [
        {
          "internalType": "address",
          "name": "bidder",
          "type": "address"
        },
        {
          "internalType": "euint32",
          "name": "amount",
          "type": "bytes32"
        },
        {
          "internalType": "uint256",
          "name": "timestamp",
          "type": "uint256"
        },
        {
          "internalType": "bool",
          "name": "isValid",
          "type": "bool"
        },
        {
          "internalType": "bool",
          "name": "withdrawn",
          "type": "bool"
        },
        {
          "internalType": "bytes32",
          "name": "commitment",
          "type": "bytes32"
        },
        {
          "internalType": "bool",
          "name": "revealed",
          "type": "bool"
        }
      ],
      "stateMutability": "view",
      "type": "function"
    },
    {
      "inputs": [
        {
          "internalType": "uint256",
          "name": "_auctionId",
          "type": "uint256"
        },
        {
          "internalType": "address",
          "name": "_bidder",
          "type": "address"
        }
      ],
      "name": "canWithdrawAdvanced",
      "outputs": [
        {
          "internalType": "bool",
          "name": "",
          "type": "bool"
        }
      ],
      "stateMutability": "view",
      "type": "function"
    },
    {
      "inputs": [
        {
          "internalType": "uint256",
          "name": "_auctionId",
          "type": "uint256"
        },
        {
          "internalType": "bytes32",
          "name": "_commitment",
          "type": "bytes32"
        }
      ],
      "name": "commitBid",
      "outputs": [],
      "stateMutability": "payable",
      "type": "function"
    },
    {
      "inputs": [],
      "name": "confidentialProtocolId",
      "outputs": [
        {
          "internalType": "uint256",
          "name": "",
          "type": "uint256"
        }
      ],
      "stateMutability": "view",
      "type": "function"
    },
    {
      "inputs": [
        {
          "internalType": "string",
          "name": "_description",
          "type": "string"
        },
        {
          "internalType": "uint256",
          "name": "_durationMinutes",
          "type": "uint256"
        }
      ],
      "name": "createAuction",
      "outputs": [
        {
          "internalType": "uint256",
          "name": "",
          "type": "uint256"
        }
      ],
      "stateMutability": "nonpayable",
      "type": "function"
    },
    {
      "inputs": [
        {
          "internalType": "uint256",
          "name": "_auctionId",
          "type": "uint256"
        },
        {
          "internalType": "address",
          "name": "_winner",
          "type": "address"
        },
        {
          "internalType": "uint256",
          "name": "_winningAmount",
          "type": "uint256"
        }
      ],
      "name": "declareWinner",
      "outputs": [],
      "stateMutability": "nonpayable",
      "type": "function"
    },
    {
      "inputs": [],
      "name": "emergencyWithdraw",
      "outputs": [],
      "stateMutability": "nonpayable",
      "type": "function"
    },
    {
      "inputs": [
        {
          "internalType": "uint256",
          "name": "_auctionId",
          "type": "uint256"
        }
      ],
      "name": "endAuction",
      "outputs": [],
      "stateMutability": "nonpayable",
      "type": "function"
    },
    {
      "inputs": [
        {
          "internalType": "uint256",
          "name": "_auctionId",
          "type": "uint256"
        }
      ],
      "name": "generateReencryptionKey",
      "outputs": [
        {
          "internalType": "bytes32",
          "name": "",
          "type": "bytes32"
        }
      ],
      "stateMutability": "nonpayable",
      "type": "function"
    },
    {
      "inputs": [
        {
          "internalType": "uint256",
          "name": "_auctionId",
          "type": "uint256"
        }
      ],
      "name": "getAuctionInfo",
      "outputs": [
        {
          "internalType": "address",
          "name": "owner",
          "type": "address"
        },
        {
          "internalType": "string",
          "name": "description",
          "type": "string"
        },
        {
          "internalType": "uint256",
          "name": "endTime",
          "type": "uint256"
        },
        {
          "internalType": "bool",
          "name": "isActive",
          "type": "bool"
        },
        {
          "internalType": "uint256",
          "name": "bidCount",
          "type": "uint256"
        },
        {
          "internalType": "address",
          "name": "pendingWinner",
          "type": "address"
        },
        {
          "internalType": "bool",
          "name": "hasBids",
          "type": "bool"
        },
        {
          "internalType": "bool",
          "name": "settled",
          "type": "bool"
        },
        {
          "internalType": "uint256",
          "name": "bondAmount",
          "type": "uint256"
        }
      ],
      "stateMutability": "view",
      "type": "function"
    },
    {
      "inputs": [],
      "name": "getContractBalance",
      "outputs": [
        {
          "internalType": "uint256",
          "name": "",
          "type": "uint256"
        }
      ],
      "stateMutability": "view",
      "type": "function"
    },
    {
      "inputs": [
        {
          "internalType": "uint256",
          "name": "_auctionId",
          "type": "uint256"
        }
      ],
      "name": "getEnhancedAuctionInfo",
      "outputs": [
        {
          "internalType": "address",
          "name": "owner",
          "type": "address"
        },
        {
          "internalType": "uint256",
          "name": "endTime",
          "type": "uint256"
        },
        {
          "internalType": "bool",
          "name": "isActive",
          "type": "bool"
        },
        {
          "internalType": "uint256",
          "name": "bidCount",
          "type": "uint256"
        },
        {
          "internalType": "address",
          "name": "pendingWinner",
          "type": "address"
        },
        {
          "internalType": "bool",
          "name": "settled",
          "type": "bool"
        },
        {
          "internalType": "bool",
          "name": "winnerRevealed",
          "type": "bool"
        },
        {
          "internalType": "uint256",
          "name": "revealedAmount",
          "type": "uint256"
        }
      ],
      "stateMutability": "view",
      "type": "function"
    },
    {
      "inputs": [],
      "name": "getTestMessage",
      "outputs": [
        {
          "internalType": "string",
          "name": "",
          "type": "string"
        }
      ],
      "stateMutability": "pure",
      "type": "function"
    },
    {
      "inputs": [
        {
          "internalType": "uint256",
          "name": "",
          "type": "uint256"
        },
        {
          "internalType": "address",
          "name": "",
          "type": "address"
        }
      ],
      "name": "hasWithdrawn",
      "outputs": [
        {
          "internalType": "bool",
          "name": "",
          "type": "bool"
        }
      ],
      "stateMutability": "view",
      "type": "function"
    },
    {
      "inputs": [
        {
          "internalType": "uint256",
          "name": "_auctionId",
          "type": "uint256"
        },
        {
          "internalType": "address",
          "name": "_bidder",
          "type": "address"
        }
      ],
      "name": "isHighestBidder",
      "outputs": [
        {
          "internalType": "bool",
          "name": "",
          "type": "bool"
        }
      ],
      "stateMutability": "view",
      "type": "function"
    },
    {
      "inputs": [
        {
          "internalType": "uint256",
          "name": "_auctionId",
          "type": "uint256"
        }
      ],
      "name": "isMinimumIncrementSet",
      "outputs": [
        {
          "internalType": "bool",
          "name": "",
          "type": "bool"
        }
      ],
      "stateMutability": "view",
      "type": "function"
    },
    {
      "inputs": [],
      "name": "nextAuctionId",
      "outputs": [
        {
          "internalType": "uint256",
          "name": "",
          "type": "uint256"
        }
      ],
      "stateMutability": "view",
      "type": "function"
    },
    {
      "inputs": [
        {
          "internalType": "uint256",
          "name": "",
          "type": "uint256"
        },
        {
          "internalType": "address",
          "name": "",
          "type": "address"
        }
      ],
      "name": "reencryptionKeys",
      "outputs": [
        {
          "internalType": "bytes32",
          "name": "",
          "type": "bytes32"
        }
      ],
      "stateMutability": "view",
      "type": "function"
    },
    {
      "inputs": [
        {
          "internalType": "uint256",
          "name": "_auctionId",
          "type": "uint256"
        },
        {
          "internalType": "externalEuint32",
          "name": "encryptedAmount",
          "type": "bytes32"
        },
        {
          "internalType": "bytes",
          "name": "inputProof",
          "type": "bytes"
        },
        {
          "internalType": "uint256",
          "name": "_salt",
          "type": "uint256"
        }
      ],
      "name": "revealBid",
      "outputs": [],
      "stateMutability": "nonpayable",
      "type": "function"
    },
    {
      "inputs": [
        {
          "internalType": "uint256",
          "name": "_auctionId",
          "type": "uint256"
        },
        {
          "internalType": "externalEuint32",
          "name": "encryptedIncrement",
          "type": "bytes32"
        },
        {
          "internalType": "bytes",
          "name": "proof",
          "type": "bytes"
        }
      ],
      "name": "setMinimumIncrement",
      "outputs": [],
      "stateMutability": "nonpayable",
      "type": "function"
    },
    {
      "inputs": [
        {
          "internalType": "uint256",
          "name": "_auctionId",
          "type": "uint256"
        }
      ],
      "name": "settleAuction",
      "outputs": [],
      "stateMutability": "nonpayable",
      "type": "function"
    },
    {
      "inputs": [
        {
          "internalType": "uint256",
          "name": "_auctionId",
          "type": "uint256"
        },
        {
          "internalType": "externalEuint32",
          "name": "encryptedAmount",
          "type": "bytes32"
        },
        {
          "internalType": "bytes",
          "name": "inputProof",
          "type": "bytes"
        }
      ],
      "name": "submitBidWithIncrement",
      "outputs": [],
      "stateMutability": "payable",
      "type": "function"
    },
    {
      "inputs": [
        {
          "internalType": "uint256",
          "name": "_auctionId",
          "type": "uint256"
        },
        {
          "internalType": "externalEuint32",
          "name": "encryptedAmount",
          "type": "bytes32"
        },
        {
          "internalType": "bytes",
          "name": "inputProof",
          "type": "bytes"
        }
      ],
      "name": "submitEncryptedBid",
      "outputs": [],
      "stateMutability": "payable",
      "type": "function"
    },
    {
      "inputs": [
        {
          "internalType": "uint256",
          "name": "_auctionId",
          "type": "uint256"
        }
      ],
      "name": "submitSimpleBid",
      "outputs": [],
      "stateMutability": "payable",
      "type": "function"
    },
    {
      "inputs": [
        {
          "internalType": "uint256",
          "name": "_auctionId",
          "type": "uint256"
        },
        {
          "internalType": "bytes32",
          "name": "_key",
          "type": "bytes32"
        }
      ],
      "name": "viewMyEncryptedBid",
      "outputs": [
        {
          "internalType": "bool",
          "name": "canView",
          "type": "bool"
        },
        {
          "internalType": "uint256",
          "name": "timestamp",
          "type": "uint256"
        },
        {
          "internalType": "bool",
          "name": "isWinner",
          "type": "bool"
        },
        {
          "internalType": "bool",
          "name": "canWithdrawNow",
          "type": "bool"
        }
      ],
      "stateMutability": "view",
      "type": "function"
    },
    {
      "inputs": [
        {
          "internalType": "uint256",
          "name": "_auctionId",
          "type": "uint256"
        }
      ],
      "name": "withdrawBid",
      "outputs": [],
      "stateMutability": "nonpayable",
      "type": "function"
    },
    {
      "inputs": [
        {
          "internalType": "uint256",
          "name": "_auctionId",
          "type": "uint256"
        }
      ],
      "name": "withdrawBidAdvanced",
      "outputs": [],
      "stateMutability": "nonpayable",
      "type": "function"
    }
  ],
  "bytecode": "0x608060405234801562000010575f80fd5b50620000c86200001f620000ce565b80517f9e7b61f58c47dc699ac88507c4f5bb9f121c03808c5676a8078fe583e464970080546001600160a01b03199081166001600160a01b039384161790915560208301517f9e7b61f58c47dc699ac88507c4f5bb9f121c03808c5676a8078fe583e46497018054831691841691909117905560408301517f9e7b61f58c47dc699ac88507c4f5bb9f121c03808c5676a8078fe583e46497028054909216921691909117905550565b62000240565b604080516060810182525f80825260208201819052918101919091524660010362000128575060408051606080820183525f8083526020808401829052928401819052835191820184528082529181018290529182015290565b4662aa36a703620001a8575060408051606080820183525f8083526020808401829052928401528251908101835273f0ffdc93b7e186bc2f8cb3daa75d86d1930a433d81527392c920834ec8941d2c77d188936e1f7a6f49c1279181019190915273be0e383937d564d7ff0bc3b46c51f0bf8d5c311a9181019190915290565b46617a690362000227575060408051606080820183525f8083526020808401829052928401528251908101835273f0ffdc93b7e186bc2f8cb3daa75d86d1930a433d81527392c920834ec8941d2c77d188936e1f7a6f49c1279181019190915273be0e383937d564d7ff0bc3b46c51f0bf8d5c311a9181019190915290565b6040516373cac13b60e01b815260040160405180910390fd5b613789806200024e5f395ff3fe6080604052600436106101c5575f3560e01c80639020b6fd116100f2578063caf8a7ac11610092578063e188a97c11610062578063e188a97c146106af578063fc3fc4ed146106d0578063fc52848214610704578063ff89523914610719575f80fd5b8063caf8a7ac14610614578063cb60c86114610633578063cfeb6f3f1461067c578063db2e21bc1461069b575f80fd5b806394cec7a7116100cd57806394cec7a71461058a578063a0ac5601146105c3578063a4cc1306146105e2578063b9a2de3a146105f5575f80fd5b80639020b6fd1461050b57806393f19970146105415780639468cb6114610577575f80fd5b80632e99361111610168578063571a26a011610138578063571a26a0146103fa5780636f9fb98a146104315780637b3c4baa146104435780638927b030146104f7575f80fd5b80632e993611146103475780633d4bf6d8146103665780634d7685031461039557806350f00ff5146103db575f80fd5b80632317977a116101a35780632317977a146102e357806323ec45071461030257806328655613146103155780632ddbfb4214610328575f80fd5b8063042c56ba146101c95780630eaaf4c81461029a5780630f5f95ed146102bb575b5f80fd5b3480156101d4575f80fd5b506102426101e3366004613163565b5f9081526020819052604090208054600282015460038301546006840154600585015460078601546009870154600a909701546001600160a01b0396871698959760ff9586169794969490931694610100909204821693919092169190565b604080516001600160a01b03998a16815260208101989098529515159587019590955260608601939093529416608084015292151560a083015291151560c082015260e0810191909152610100015b60405180910390f35b3480156102a5575f80fd5b506102b96102b4366004613163565b610738565b005b3480156102c6575f80fd5b506102d5662386f26fc1000081565b604051908152602001610291565b3480156102ee575f80fd5b506102b96102fd366004613163565b610a30565b6102b96103103660046131bf565b610de3565b6102b96103233660046131bf565b611279565b348015610333575f80fd5b506102b9610342366004613229565b61176e565b348015610352575f80fd5b506102b9610361366004613163565b611a2f565b348015610371575f80fd5b50610385610380366004613163565b611bf1565b6040519015158152602001610291565b3480156103a0575f80fd5b506103856103af36600461325b565b5f828152602081815260408083206001600160a01b0385168452600b0190915290205460ff1692915050565b3480156103e6575f80fd5b506103856103f536600461325b565b611c0b565b348015610405575f80fd5b50610419610414366004613163565b611d29565b6040516102919c9b9a999897969594939291906132c8565b34801561043c575f80fd5b50476102d5565b34801561044e575f80fd5b506104b461045d366004613350565b600160208181525f938452604080852090915291835291208054918101546002820154600383015460048401546005909401546001600160a01b03909516949293919260ff80831693610100909304811692911687565b604080516001600160a01b03909816885260208801969096529486019390935290151560608501521515608084015260a0830152151560c082015260e001610291565b348015610502575f80fd5b506102d5611e2b565b348015610516575f80fd5b506102d561052536600461325b565b600460209081525f928352604080842090915290825290205481565b34801561054c575f80fd5b506102d561055b36600461325b565b600260209081525f928352604080842090915290825290205481565b6102b9610585366004613350565b611e39565b348015610595575f80fd5b506103856105a436600461325b565b600360209081525f928352604080842090915290825290205460ff1681565b3480156105ce575f80fd5b506102b96105dd366004613370565b612161565b6102b96105f0366004613163565b612401565b348015610600575f80fd5b506102b961060f366004613163565b612750565b34801561061f575f80fd5b506102d561062e366004613163565b6128f9565b34801561063e575f80fd5b5061065261064d366004613350565b6129ec565b60408051941515855260208501939093529015159183019190915215156060820152608001610291565b348015610687575f80fd5b506102b96106963660046131bf565b612aa7565b3480156106a6575f80fd5b506102b9612c70565b3480156106ba575f80fd5b506106c3612d14565b60405161029191906133c6565b3480156106db575f80fd5b506106ef6106ea366004613163565b612d34565b604051610291999897969594939291906133d8565b34801561070f575f80fd5b506102d560055481565b348015610724575f80fd5b506102d561073336600461344c565b612e48565b8060055481106107885760405162461bcd60e51b8152602060048201526016602482015275105d58dd1a5bdb88191bd95cc81b9bdd08195e1a5cdd60521b60448201526064015b60405180910390fd5b5f828152602081905260409020600381015460ff1615806107ad575080600201544210155b6107f05760405162461bcd60e51b815260206004820152601460248201527341756374696f6e207374696c6c2061637469766560601b604482015260640161077f565b5f838152600260209081526040808320338452909152902054806108455760405162461bcd60e51b815260206004820152600c60248201526b139bc8189a5908199bdd5b9960a21b604482015260640161077f565b61085060018261350f565b5f858152600160209081526040808320848452909152902060038101549192509060ff166108b05760405162461bcd60e51b815260206004820152600d60248201526c109a59081b9bdd081d985b1a59609a1b604482015260640161077f565b6003810154610100900460ff161561090a5760405162461bcd60e51b815260206004820152601160248201527f416c72656164792077697468647261776e000000000000000000000000000000604482015260640161077f565b60058301546001600160a01b03163314158061092f57506007830154610100900460ff165b61098c5760405162461bcd60e51b815260206004820152602860248201527f57696e6e65722063616e6e6f74207769746864726177206265666f72652073656044820152671d1d1b195b595b9d60c21b606482015260840161077f565b6003808201805461ff0019166101001790555f86815260209182526040808220338084529352808220805460ff1916600117905551662386f26fc100009082818181858883f193505050501580156109e6573d5f803e3d5ffd5b5060408051338152662386f26fc10000602082015286917f8f8619524e8d462cead34604bd2247ede24175801481e4d0b8059ac8aa41c30191015b60405180910390a25050505050565b806005548110610a7b5760405162461bcd60e51b8152602060048201526016602482015275105d58dd1a5bdb88191bd95cc81b9bdd08195e1a5cdd60521b604482015260640161077f565b5f828152602081905260409020600381015460ff161580610aa0575080600201544210155b610ae35760405162461bcd60e51b815260206004820152601460248201527341756374696f6e207374696c6c2061637469766560601b604482015260640161077f565b5f83815260026020908152604080832033845290915290205480610b385760405162461bcd60e51b815260206004820152600c60248201526b139bc8189a5908199bdd5b9960a21b604482015260640161077f565b610b4360018261350f565b5f858152600160209081526040808320848452909152902060038101549192509060ff16610ba35760405162461bcd60e51b815260206004820152600d60248201526c109a59081b9bdd081d985b1a59609a1b604482015260640161077f565b6003810154610100900460ff1615610bfd5760405162461bcd60e51b815260206004820152601160248201527f416c72656164792077697468647261776e000000000000000000000000000000604482015260640161077f565b335f908152600b8401602052604090205460ff1615610cfa576007830154610100900460ff16610c805760405162461bcd60e51b815260206004820152602860248201527f57696e6e65722063616e6e6f74207769746864726177206265666f72652073656044820152671d1d1b195b595b9d60c21b606482015260840161077f565b600983015460ff16610cfa5760405162461bcd60e51b815260206004820152602560248201527f57696e6e696e6720616d6f756e74206d7573742062652072657665616c65642060448201527f6669727374000000000000000000000000000000000000000000000000000000606482015260840161077f565b6003808201805461ff0019166101001790555f86815260209182526040808220338084529352808220805460ff1916600117905551662386f26fc100009082818181858883f19350505050158015610d54573d5f803e3d5ffd5b5060408051338152662386f26fc10000602082015286917f8f8619524e8d462cead34604bd2247ede24175801481e4d0b8059ac8aa41c301910160405180910390a2335f818152600b8501602090815260409182902054825193845260ff1615159083015286917f87d8d6981868c61d98c782773601efc1d6db66c7f8de94c22d0a63e09af9aa159101610a21565b836005548110610e2e5760405162461bcd60e51b8152602060048201526016602482015275105d58dd1a5bdb88191bd95cc81b9bdd08195e1a5cdd60521b604482015260640161077f565b5f858152602081905260409020600381015460ff16610e845760405162461bcd60e51b815260206004820152601260248201527141756374696f6e206e6f742061637469766560701b604482015260640161077f565b80600201544210610ec75760405162461bcd60e51b815260206004820152600d60248201526c105d58dd1a5bdb88195b991959609a1b604482015260640161077f565b662386f26fc100003414610f1d5760405162461bcd60e51b815260206004820152601960248201527f496e636f72726563742062696420626f6e6420616d6f756e7400000000000000604482015260640161077f565b5f86815260026020908152604080832033845290915290205415610f835760405162461bcd60e51b815260206004820152601b60248201527f416c72656164792062696420696e20746869732061756374696f6e0000000000604482015260640161077f565b5f610fc38686868080601f0160208091040260200160405190810160405280939291908181526020018383808284375f92019190915250612f5192505050565b9050600182600b015f336001600160a01b03166001600160a01b031681526020019081526020015f205f6101000a81548160ff0219169083151502179055505f826006015490506040518060e00160405280336001600160a01b031681526020018381526020014281526020016001151581526020015f151581526020015f801b81526020016001151581525060015f8a81526020019081526020015f205f8381526020019081526020015f205f820151815f015f6101000a8154816001600160a01b0302191690836001600160a01b0316021790555060208201518160010155604082015181600201556060820151816003015f6101000a81548160ff02191690831515021790555060808201518160030160016101000a81548160ff02191690831515021790555060a0820151816004015560c0820151816005015f6101000a81548160ff0219169083151502179055509050508060016111269190613522565b5f8981526002602090815260408083203384529091528120919091556006840180549161115283613535565b9091555050600783015460ff166111e057600483018290556005830180546001600160a01b0319163317905560078301805460ff1916600117905561119682612f65565b506111a5836004015433612f74565b5060405133815288907f0cd0a11d7395318bc12887647b19c0fc4eda80b6b5876e68d807b549db1011da9060200160405180910390a261122d565b6005830180546001600160a01b0319163390811790915560405190815288907f0cd0a11d7395318bc12887647b19c0fc4eda80b6b5876e68d807b549db1011da9060200160405180910390a25b60408051338152602081018390523481830152905189917f71a5674c44b823bc0df08201dfeb2e8bdf698cd684fd2bbaa79adcf2c99fc186919081900360600190a25050505050505050565b8360055481106112c45760405162461bcd60e51b8152602060048201526016602482015275105d58dd1a5bdb88191bd95cc81b9bdd08195e1a5cdd60521b604482015260640161077f565b5f858152602081905260409020600381015460ff1661131a5760405162461bcd60e51b815260206004820152601260248201527141756374696f6e206e6f742061637469766560701b604482015260640161077f565b8060020154421061135d5760405162461bcd60e51b815260206004820152600d60248201526c105d58dd1a5bdb88195b991959609a1b604482015260640161077f565b662386f26fc1000034146113b35760405162461bcd60e51b815260206004820152601960248201527f496e636f72726563742062696420626f6e6420616d6f756e7400000000000000604482015260640161077f565b5f868152600260209081526040808320338452909152902054156114195760405162461bcd60e51b815260206004820152601b60248201527f416c72656164792062696420696e20746869732061756374696f6e0000000000604482015260640161077f565b5f6114598686868080601f0160208091040260200160405190810160405280939291908181526020018383808284375f92019190915250612f5192505050565b335f818152600b850160209081526040808320805460ff191660011790556006870154905160609490941b6bffffffffffffffffffffffff191691840191909152603483018b9052426054840152929350906074016040516020818303038152906040528051906020012090506040518060e00160405280336001600160a01b031681526020018481526020014281526020016001151581526020015f151581526020018281526020015f151581525060015f8b81526020019081526020015f205f8481526020019081526020015f205f820151815f015f6101000a8154816001600160a01b0302191690836001600160a01b0316021790555060208201518160010155604082015181600201556060820151816003015f6101000a81548160ff02191690831515021790555060808201518160030160016101000a81548160ff02191690831515021790555060a0820151816004015560c0820151816005015f6101000a81548160ff0219169083151502179055509050508160016115df9190613522565b5f8a81526002602090815260408083203384529091528120919091556006850180549161160b83613535565b9091555050600784015460ff1661169957600484018390556005840180546001600160a01b0319163317905560078401805460ff1916600117905561164f83612f65565b5061165e846004015433612f74565b5060405133815289907f0cd0a11d7395318bc12887647b19c0fc4eda80b6b5876e68d807b549db1011da9060200160405180910390a26116e6565b6005840180546001600160a01b0319163390811790915560405190815289907f0cd0a11d7395318bc12887647b19c0fc4eda80b6b5876e68d807b549db1011da9060200160405180910390a25b6040805133815260208101849052348183015290518a917f71a5674c44b823bc0df08201dfeb2e8bdf698cd684fd2bbaa79adcf2c99fc186919081900360600190a260408051338152602081018390528a917f73d08f7ec7a6afb69ec9a7ae60d66a6356583d5ab29cf9f225d276012e8e1024910160405180910390a2505050505050505050565b5f8381526020819052604090205483906001600160a01b031633146117ca5760405162461bcd60e51b815260206004820152601260248201527127b7363c9030bab1ba34b7b71037bbb732b960711b604482015260640161077f565b8360055481106118155760405162461bcd60e51b8152602060048201526016602482015275105d58dd1a5bdb88191bd95cc81b9bdd08195e1a5cdd60521b604482015260640161077f565b5f858152602081905260409020600381015460ff161561186e5760405162461bcd60e51b815260206004820152601460248201527341756374696f6e207374696c6c2061637469766560601b604482015260640161077f565b600781015460ff166118c25760405162461bcd60e51b815260206004820152600760248201527f4e6f206269647300000000000000000000000000000000000000000000000000604482015260640161077f565b600981015460ff161561190a5760405162461bcd60e51b815260206004820152601060248201526f105b1c9958591e481c995d99585b195960821b604482015260640161077f565b5f8681526002602090815260408083206001600160a01b03891684529091529020546119785760405162461bcd60e51b815260206004820152601260248201527f41646472657373206469646e2774206269640000000000000000000000000000604482015260640161077f565b6005810180546001600160a01b0319166001600160a01b038716908117909155600a820185905560098201805460ff19166001179055604080519182526020820186905287917f7887632081c03ed817cc48a827d9f51ad24f91ac3a7807f1f22a2fd3ab0ecf5d910160405180910390a26040516001600160a01b038616815286907f3b68e0e428aa0f3e0cbaa5433ba2adba8bf0e041105ef91a286ecef6d5e991269060200160405180910390a2505050505050565b806005548110611a7a5760405162461bcd60e51b8152602060048201526016602482015275105d58dd1a5bdb88191bd95cc81b9bdd08195e1a5cdd60521b604482015260640161077f565b5f8281526020819052604090205482906001600160a01b03163314611ad65760405162461bcd60e51b815260206004820152601260248201527127b7363c9030bab1ba34b7b71037bbb732b960711b604482015260640161077f565b5f838152602081905260409020600381015460ff1615611b2f5760405162461bcd60e51b815260206004820152601460248201527341756374696f6e207374696c6c2061637469766560601b604482015260640161077f565b6007810154610100900460ff1615611b895760405162461bcd60e51b815260206004820152600f60248201527f416c726561647920736574746c65640000000000000000000000000000000000604482015260640161077f565b60078101805461ff0019166101001790556005810154600a820154604080516001600160a01b039093168352602083019190915285917fc9f72b276a388619c6d185d146697036241880c36654b1a3ffdad07c24038d9991015b60405180910390a250505050565b5f8181526020819052604081206008015415155b92915050565b5f82815260208181526040808320600283528184206001600160a01b0386168552909252822054808303611c43575f92505050611c05565b611c4e60018261350f565b5f868152600160209081526040808320848452909152902060038101549192509060ff161580611c8757506003810154610100900460ff165b15611c97575f9350505050611c05565b600383015460ff168015611cae5750826002015442105b15611cbe575f9350505050611c05565b6001600160a01b0385165f908152600b8401602052604090205460ff1615611d07576007830154610100900460ff168015611cfd5750600983015460ff165b9350505050611c05565b600383015460ff161580611d1f575082600201544210155b9695505050505050565b5f60208190529081526040902080546001820180546001600160a01b039092169291611d549061354d565b80601f0160208091040260200160405190810160405280929190818152602001828054611d809061354d565b8015611dcb5780601f10611da257610100808354040283529160200191611dcb565b820191905f5260205f20905b815481529060010190602001808311611dae57829003601f168201915b50505060028401546003850154600486015460058701546006880154600789015460088a015460098b0154600a909b0154999a969960ff96871699509497506001600160a01b03909316959194818116946101009092048116939216908c565b5f611e34612f86565b905090565b816005548110611e845760405162461bcd60e51b8152602060048201526016602482015275105d58dd1a5bdb88191bd95cc81b9bdd08195e1a5cdd60521b604482015260640161077f565b662386f26fc100003414611eda5760405162461bcd60e51b815260206004820152601260248201527f496e636f72726563742062696420626f6e640000000000000000000000000000604482015260640161077f565b5f83815260026020908152604080832033845290915290205415611f405760405162461bcd60e51b815260206004820152600b60248201527f416c726561647920626964000000000000000000000000000000000000000000604482015260640161077f565b5f805f8581526020019081526020015f209050600181600b015f336001600160a01b03166001600160a01b031681526020019081526020015f205f6101000a81548160ff0219169083151502179055505f816006015490506040518060e00160405280336001600160a01b031681526020015f801b81526020014281526020016001151581526020015f151581526020018581526020015f151581525060015f8781526020019081526020015f205f8381526020019081526020015f205f820151815f015f6101000a8154816001600160a01b0302191690836001600160a01b0316021790555060208201518160010155604082015181600201556060820151816003015f6101000a81548160ff02191690831515021790555060808201518160030160016101000a81548160ff02191690831515021790555060a0820151816004015560c0820151816005015f6101000a81548160ff0219169083151502179055509050508060016120b39190613522565b5f868152600260209081526040808320338452909152812091909155600683018054916120df83613535565b9091555050604080513381526020810186905286917f73d08f7ec7a6afb69ec9a7ae60d66a6356583d5ab29cf9f225d276012e8e1024910160405180910390a26040805133815260208101839052349181019190915285907f71a5674c44b823bc0df08201dfeb2e8bdf698cd684fd2bbaa79adcf2c99fc18690606001610a21565b8460055481106121ac5760405162461bcd60e51b8152602060048201526016602482015275105d58dd1a5bdb88191bd95cc81b9bdd08195e1a5cdd60521b604482015260640161077f565b5f868152602081905260409020600381015460ff16156122055760405162461bcd60e51b815260206004820152601460248201527341756374696f6e207374696c6c2061637469766560601b604482015260640161077f565b5f8781526002602090815260408083203384529091529020548061225a5760405162461bcd60e51b815260206004820152600c60248201526b139bc8189a5908199bdd5b9960a21b604482015260640161077f565b61226560018261350f565b5f898152600160209081526040808320848452909152902060058101549192509060ff16156122c95760405162461bcd60e51b815260206004820152601060248201526f105b1c9958591e481c995d99585b195960821b604482015260640161077f565b6040516bffffffffffffffffffffffff193360601b166020820152603481018a905260548101899052607481018690525f90609401604051602081830303815290604052805190602001209050808260040154146123695760405162461bcd60e51b815260206004820152600e60248201527f496e76616c69642072657665616c000000000000000000000000000000000000604482015260640161077f565b6123a88989898080601f0160208091040260200160405190810160405280939291908181526020018383808284375f92019190915250612f5192505050565b60018381019190915560058301805460ff191690911790556040513381528a907fcb1784faad642d48c787676118783766577faa10d9c69eb1fbb40c3baaac87d19060200160405180910390a250505050505050505050565b80600554811061244c5760405162461bcd60e51b8152602060048201526016602482015275105d58dd1a5bdb88191bd95cc81b9bdd08195e1a5cdd60521b604482015260640161077f565b5f828152602081905260409020600381015460ff166124a25760405162461bcd60e51b815260206004820152601260248201527141756374696f6e206e6f742061637469766560701b604482015260640161077f565b806002015442106124e55760405162461bcd60e51b815260206004820152600d60248201526c105d58dd1a5bdb88195b991959609a1b604482015260640161077f565b662386f26fc10000341461253b5760405162461bcd60e51b815260206004820152601960248201527f496e636f72726563742062696420626f6e6420616d6f756e7400000000000000604482015260640161077f565b5f838152600260209081526040808320338452909152902054156125a15760405162461bcd60e51b815260206004820152601b60248201527f416c72656164792062696420696e20746869732061756374696f6e0000000000604482015260640161077f565b60068101546040805160e08101825233815260646020808301918252428385019081526001606085018181525f6080870181815260a0880182815260c089018581528e84528588528a84208c855290975298909120965187546001600160a01b0319166001600160a01b03909116178755945186830155915160028601559051600385018054945161ffff1990951691151561ff0019169190911761010094151594909402939093179092559251600483015591516005909101805460ff1916911515919091179055612675908290613522565b5f858152600260209081526040808320338452909152812091909155600683018054916126a183613535565b9091555050600782015460ff1661270e576005820180546001600160a01b0319163390811790915560078301805460ff1916600117905560405190815284907f0cd0a11d7395318bc12887647b19c0fc4eda80b6b5876e68d807b549db1011da9060200160405180910390a25b6040805133815260208101839052349181019190915284907f71a5674c44b823bc0df08201dfeb2e8bdf698cd684fd2bbaa79adcf2c99fc18690606001611be3565b80600554811061279b5760405162461bcd60e51b8152602060048201526016602482015275105d58dd1a5bdb88191bd95cc81b9bdd08195e1a5cdd60521b604482015260640161077f565b5f8281526020819052604090205482906001600160a01b031633146127f75760405162461bcd60e51b815260206004820152601260248201527127b7363c9030bab1ba34b7b71037bbb732b960711b604482015260640161077f565b5f838152602081905260409020600381015460ff166128585760405162461bcd60e51b815260206004820152601560248201527f41756374696f6e20616c726561647920656e6465640000000000000000000000604482015260640161077f565b80600201544210156128ac5760405162461bcd60e51b815260206004820152601560248201527f41756374696f6e206e6f742079657420656e6465640000000000000000000000604482015260640161077f565b60038101805460ff1916905560058101546040516001600160a01b03909116815284907fc07789fac136048b605fef8e227ab89b2e33d8afc9ab4817d374197cd81443d690602001611be3565b5f81815260026020908152604080832033845290915281205461294d5760405162461bcd60e51b815260206004820152600c60248201526b139bc8189a5908199bdd5b9960a21b604482015260640161077f565b604080514260208201526bffffffffffffffffffffffff193360601b1691810191909152605481018390524460748201525f9060940160408051808303601f1901815282825280516020918201205f878152600483528381203380835290845293902081905591835290925084917f2f925bebb7163048cceaa19064b5399262405de3c89520a83ae6b87f420a831d910160405180910390a292915050565b5f828152600260209081526040808320338452909152812054819081908190808203612a24575f805f80945094509450945050612a9e565b612a2f60018261350f565b5f88815260016020908152604080832084845282528083208b84528383528184206004845282852033808752908552838620546002840154600b8401909652939095205495965090949093918b14928392909160ff1690612a91908e90611c0b565b9750975097509750505050505b92959194509250565b5f8481526020819052604090205484906001600160a01b03163314612b035760405162461bcd60e51b815260206004820152601260248201527127b7363c9030bab1ba34b7b71037bbb732b960711b604482015260640161077f565b846005548110612b4e5760405162461bcd60e51b8152602060048201526016602482015275105d58dd1a5bdb88191bd95cc81b9bdd08195e1a5cdd60521b604482015260640161077f565b5f868152602081905260409020600381015460ff16612ba45760405162461bcd60e51b815260206004820152601260248201527141756374696f6e206e6f742061637469766560701b604482015260640161077f565b600781015460ff1615612bf95760405162461bcd60e51b815260206004820152601360248201527f4269647320616c726561647920706c6163656400000000000000000000000000604482015260640161077f565b612c388686868080601f0160208091040260200160405190810160405280939291908181526020018383808284375f92019190915250612f5192505050565b600882015560405187907fc2eb78832b8115286316df7c9af14b9d6c6e0b2549fd7b7be8a142a2219cac23905f90a250505050505050565b5f80805260208190527fad3228b676f7d3cd4284a5443f17f1962b36e491b30a40b2405849e597ba5fb5546001600160a01b03163314612ce75760405162461bcd60e51b815260206004820152601260248201527127b7363c9030bab1ba34b7b71037bbb732b960711b604482015260640161077f565b60405133904780156108fc02915f818181858888f19350505050158015612d10573d5f803e3d5ffd5b5050565b606060405180606001604052806038815260200161374560389139905090565b5f8181526020819052604081208054600282015460038301546006840154600585015460078601546001870180546060988a9889988998899889988998899896976001600160a01b03968716979660ff958616959316928281169261010090041690662386f26fc10000908890612daa9061354d565b80601f0160208091040260200160405190810160405280929190818152602001828054612dd69061354d565b8015612e215780601f10612df857610100808354040283529160200191612e21565b820191905f5260205f20905b815481529060010190602001808311612e0457829003601f168201915b50505050509750995099509950995099509950995099509950509193959799909294969850565b600580545f9182919082612e5b83613535565b909155505f81815260208190526040902080546001600160a01b03191633178155909150600101612e8c85826135d1565b50612e9883603c613691565b612ea29042613522565b5f828152602081905260408082206002810184905560038101805460ff19908116600117909155600482018490556005820180546001600160a01b03191690556006820184905560078201805461ffff19169055600882018490556009820180549091169055600a01919091555182917f568694aa4b5066fe5362111fcfda3f97f456688bc2adc2538c2f2c1acf954b3491612f429133918991906136a8565b60405180910390a29392505050565b5f612f5e83836004612fba565b9392505050565b5f612f7082306130da565b5090565b5f612f7f83836130da565b5090919050565b5f46600103612f955750600190565b4662aa36a703612fa6575061271190565b46617a6903612fb557505f1990565b505f90565b7f9e7b61f58c47dc699ac88507c4f5bb9f121c03808c5676a8078fe583e46497015460405163045fc19560e11b81525f917f9e7b61f58c47dc699ac88507c4f5bb9f121c03808c5676a8078fe583e4649700916001600160a01b03909116906308bf832a906130339088903390899089906004016136d9565b6020604051808303815f875af115801561304f573d5f803e3d5ffd5b505050506040513d601f19601f82011682018060405250810190613073919061372d565b8154604051630f8e573b60e21b8152600481018390523360248201529193506001600160a01b031690633e395cec906044015f604051808303815f87803b1580156130bc575f80fd5b505af11580156130ce573d5f803e3d5ffd5b50505050509392505050565b5f7f9e7b61f58c47dc699ac88507c4f5bb9f121c03808c5676a8078fe583e46497008054604051635ca4b5b160e11b8152600481018690526001600160a01b03858116602483015292935091169063b9496b62906044015f604051808303815f87803b158015613148575f80fd5b505af115801561315a573d5f803e3d5ffd5b50505050505050565b5f60208284031215613173575f80fd5b5035919050565b5f8083601f84011261318a575f80fd5b50813567ffffffffffffffff8111156131a1575f80fd5b6020830191508360208285010111156131b8575f80fd5b9250929050565b5f805f80606085870312156131d2575f80fd5b8435935060208501359250604085013567ffffffffffffffff8111156131f6575f80fd5b6132028782880161317a565b95989497509550505050565b80356001600160a01b0381168114613224575f80fd5b919050565b5f805f6060848603121561323b575f80fd5b8335925061324b6020850161320e565b9150604084013590509250925092565b5f806040838503121561326c575f80fd5b8235915061327c6020840161320e565b90509250929050565b5f81518084525f5b818110156132a95760208185018101518683018201520161328d565b505f602082860101526020601f19601f83011685010191505092915050565b5f6001600160a01b03808f16835261018060208401526132ec61018084018f613285565b91508c60408401528b151560608401528a6080840152808a1660a0840152508760c083015286151560e08301528515156101008301528461012083015261333861014083018515159052565b826101608301529d9c50505050505050505050505050565b5f8060408385031215613361575f80fd5b50508035926020909101359150565b5f805f805f60808688031215613384575f80fd5b8535945060208601359350604086013567ffffffffffffffff8111156133a8575f80fd5b6133b48882890161317a565b96999598509660600135949350505050565b602081525f612f5e6020830184613285565b5f6101206001600160a01b03808d1684528160208501526133fb8285018d613285565b604085019b909b529815156060840152505060808101959095529290941660a0840152151560c083015291151560e0820152610100015292915050565b634e487b7160e01b5f52604160045260245ffd5b5f806040838503121561345d575f80fd5b823567ffffffffffffffff80821115613474575f80fd5b818501915085601f830112613487575f80fd5b81358181111561349957613499613438565b604051601f8201601f19908116603f011681019083821181831017156134c1576134c1613438565b816040528281528860208487010111156134d9575f80fd5b826020860160208301375f602093820184015298969091013596505050505050565b634e487b7160e01b5f52601160045260245ffd5b81810381811115611c0557611c056134fb565b80820180821115611c0557611c056134fb565b5f60018201613546576135466134fb565b5060010190565b600181811c9082168061356157607f821691505b60208210810361357f57634e487b7160e01b5f52602260045260245ffd5b50919050565b601f8211156135cc57805f5260205f20601f840160051c810160208510156135aa5750805b601f840160051c820191505b818110156135c9575f81556001016135b6565b50505b505050565b815167ffffffffffffffff8111156135eb576135eb613438565b6135ff816135f9845461354d565b84613585565b602080601f831160018114613632575f841561361b5750858301515b5f19600386901b1c1916600185901b178555613689565b5f85815260208120601f198616915b8281101561366057888601518255948401946001909101908401613641565b508582101561367d57878501515f19600388901b60f8161c191681555b505060018460011b0185555b505050505050565b8082028115828204841417611c0557611c056134fb565b6001600160a01b0384168152606060208201525f6136c96060830185613285565b9050826040830152949350505050565b8481526001600160a01b0384166020820152608060408201525f6137006080830185613285565b90506054831061371e57634e487b7160e01b5f52602160045260245ffd5b82606083015295945050505050565b5f6020828403121561373d575f80fd5b505191905056fe50726976614269642050726f3a204648452041756374696f6e207769746820416476616e6365642050726976616379204665617475726573a164736f6c6343000818000a",
  "linkReferences": {},
  "deployedLinkReferences": {}
}